:04000000EEEF00F02F
:100008005F82E1CF6DF0E2CF6EF0D9CF6FF0DACF3B
:1000180070F0F3CF71F0F4CF72F0F6CF73F0F7CF42
:1000280074F0F8CF75F0F5CF76F0F2A21EEF00F07D
:1000380020EF00F02EEF00F0000E24EC0CF05E6EC6
:1000480081B029EF00F02BEF00F024EF00F0F292DE
:1000580056EF00F0F0A033EF00F035EF00F043EF7B
:1000680000F0010E24EC0CF05E6E81B23EEF00F061
:1000780040EF00F039EF00F0F09056EF00F0F0A2FA
:1000880048EF00F04AEF00F056EF00F0020E24ECC3
:100098000CF05E6E81B453EF00F055EF00F04EEFB8
:1000A80000F0F0922A0E5E18D8A45DEF00F05FEF22
:1000B80000F07BEF00F0010E45EC0FF0800E45ECF0
:1000C8000FF0290E096E020E0A6EEDEC0CF0000E10
:1000D8000001E86F000EE76FC00E45EC0FF0380E18
:1000E800096E020E0A6EEDEC0CF0D8EF00F0230E4C
:1000F8005E18D8A482EF00F084EF00F0AFEF00F0B4
:10010800DD0E586E000E596E530E5A6E020E5B6E5F
:10011800E7C05CF0E8C05DF071EC0DF0010E45EC55
:100128000FF0800E45EC0FF0380E096E020E0A6EC5
:10013800EDEC0CF0DD0E096E000E0A6EEDEC0CF025
:10014800DF0E38EC0FF0500E096E020E0A6EEDEC61
:100158000CF0D8EF00F05E5038EC0FF0D00E000134
:10016800686FFF0E696F5E506A6F6B6B68516A2724
:1001780069516B230D0E6A25F66E020E6B21F76E20
:100188000800F5CF6CF0E7C001F0E8C002F0000EFF
:10019800046E0A0E036EF9EC0EF000016C51012496
:1001A800E76F000E0220E86F76C0F5FF75C0F8FF14
:1001B80074C0F7FF73C0F6FF72C0F4FF71C0F3FF9D
:1001C80070C0DAFF6FC0D9FF6EC0E2FF6DC0E1FFFB
:0801D8005F921100D1EF0EF05F
:10020000003132333435363738392A302300010291
:100210000304050607080954656D702026204C4428
:10022000525F73656E736F7200456E746572205411
:10023000656D70205265660054656D70205265666C
:100240003A200054656D702069733A200032350001
:0702500020430025640000BB
:1002580094C0ACF095C0ADF096C0AEF097C0AFF0CA
:1002680098C0B0F099C0B1F09AC0B2F09BC0B3F09A
:100278000001B3BF42EF01F045EF01F0010E46EF78
:1002880001F0000EAA6FAB6BAA51AB11D8B44FEFB7
:1002980001F051EF01F061EF01F0B31FB21FB11F80
:1002A800B01FAF1FAE1FAD1FAC6D000EAD23AE2348
:1002B800AF23B023B123B223B323D3BF66EF01F03A
:1002C80068EF01F069EF01F0D493D3BF76EF01F046
:1002D800D35106E1D205D8B074EF01F076EF01F002
:1002E8007CEF01F0000EA76F010EA66F80EF01F002
:1002F800D2C0A6F0D3C0A7F0D0C0A8F0D1C0A9F052
:10030800AA51AB11D8A48BEF01F08DEF01F094EF57
:1003180001F0D4A592EF01F094EF01F097EF01F00E
:10032800A807D8A0A907000EB56F1F0EB46F000E5E
:1003380001011F6F1DEF02F0B407D8A0B507000E2A
:10034800B425D96E010EB521DA6EACC077F0ADC018
:1003580078F0AEC079F0AFC07AF0B0C07BF0B1C031
:100368007CF0B2C07DF0B3C07EF00A0E7F6F000E45
:10037800806F000E816F000E826F000E836F000E7B
:10038800846F000E856F000E866F75EC08F077C0DD
:100398009CF078C09DF079C09EF07AC09FF07BC039
:1003A800A0F07CC0A1F07DC0A2F07EC0A3F09CC0EC
:1003B80089F09EC08AF058EC0EF000018951300F88
:1003C800DF6EA607D8A0A707A807D8A0A907ACC0C2
:1003D80077F0ADC078F0AEC079F0AFC07AF0B0C0B9
:1003E8007BF0B1C07CF0B2C07DF0B3C07EF00A0EE5
:1003F8007F6F000E806F000E816F000E826F000EFF
:10040800836F000E846F000E856F000E866FECEC14
:1004180006F077C0ACF078C0ADF079C0AEF07AC025
:10042800AFF07BC0B0F07CC0B1F07DC0B2F07EC050
:10043800B3F00001B5BF29EF02F0B55108E1B405EA
:10044800D8A029EF02F02BEF02F05BEF02F0AC51DD
:10045800AD11AE11AF11B011B111B211B311D8A4D1
:1004680038EF02F03AEF02F0A0EF01F0A7BF47EF34
:1004780002F0A75106E1A605D8B045EF02F047EF14
:1004880002F0A0EF01F0A9BF52EF02F0A95108E174
:10049800A805D8A052EF02F054EF02F05BEF02F08B
:1004A800D4B359EF02F05BEF02F0A0EF01F0AA51CC
:1004B800AB11D8A462EF02F064EF02F06BEF02F028
:1004C800D4A569EF02F06BEF02F089EF02F0B407F0
:1004D800D8A0B507AA51AB11D8A475EF02F077EFF1
:1004E80002F07DEF02F0000EA56F2B0EA46F81EFD6
:1004F80002F0000EA56F2D0EA46F000EB425D96E64
:10050800010EB521DA6EA4C0DFFF92C087F093C058
:1005180088F0000EB425896F010EB5218A6FA8C036
:100528008BF0A9C08CF040EC0AF087C092F088C02C
:1005380093F012001EC036F01FC037F020C038F00C
:1005480021C039F022C03AF023C03BF024C03CF06F
:1005580025C03DF03DBEB3EF02F0B6EF02F0010E4C
:10056800B7EF02F0000E346E356A34503510D8B447
:10057800C0EF02F0C2EF02F0D2EF02F03D1E3C1EC7
:100588003B1E3A1E391E381E371E366C000E3722A7
:10059800382239223A223B223C223D220001D3BF95
:1005A800D8EF02F0DAEF02F0DBEF02F0D493D3BF1A
:1005B800E8EF02F0D35106E1D205D8B0E6EF02F039
:1005C800E8EF02F0EEEF02F0000E316E010E306E31
:1005D800F2EF02F0D2C030F0D3C031F0D0C032F028
:1005E800D1C033F034503510D8A4FDEF02F0FFEF3E
:1005F80002F006EF03F0D4A504EF03F006EF03F0D2
:1006080009EF03F03206D8A03306000E3F6E1F0E26
:100618003E6E000E01011F6F8EEF03F03E06D8A05C
:100628003F06000E3E24D96E010E3F20DA6E36C01A
:1006380001F037C002F038C003F039C004F03AC006
:1006480005F03BC006F03CC007F03DC008F00A0EBC
:10065800096E000E0A6E000E0B6E000E0C6E000E78
:100668000D6E000E0E6E000E0F6E000E106E28EC52
:1006780009F001C026F002C027F003C028F004C02A
:1006880029F005C02AF006C02BF007C02CF008C0DE
:100698002DF026C013F028C014F079EC0EF013509A
:1006A800300FDF6E3006D8A031063206D8A03306E8
:1006B80036C001F037C002F038C003F039C004F08A
:1006C8003AC005F03BC006F03CC007F03DC008F05A
:1006D8000A0E096E000E0A6E000E0B6E000E0C6EEE
:1006E800000E0D6E000E0E6E000E0F6E000E106ED8
:1006F800B1EC07F001C036F002C037F003C038F0A3
:1007080004C039F005C03AF006C03BF007C03CF021
:1007180008C03DF03FBE99EF03F03F5008E13E04AA
:10072800D8A099EF03F09BEF03F0CCEF03F036501D
:100738003710381039103A103B103C103D10D8A42F
:10074800A8EF03F0AAEF03F012EF03F031BEB7EF02
:1007580003F0315006E13004D8B0B5EF03F0B7EF3D
:1007680003F012EF03F033BEC2EF03F0335008E199
:100778003204D8A0C2EF03F0C4EF03F0CCEF03F0CB
:100788000001D4B3CAEF03F0CCEF03F012EF03F08B
:1007980034503510D8A4D3EF03F0D5EF03F0DDEFD4
:1007A80003F00001D4A5DBEF03F0DDEF03F0FBEF6E
:1007B80003F03E06D8A03F0634503510D8A4E7EF22
:1007C80003F0E9EF03F0EFEF03F0000E2F6E2B0EAE
:1007D8002E6EF3EF03F0000E2F6E2D0E2E6E000E10
:1007E8003E24D96E010E3F20DA6E2EC0DFFF1CC0FA
:1007F80011F01DC012F0000E3E24136E010E3F20B2
:10080800146E32C015F033C016F06DEC0BF011C049
:100818001CF012C01DF01200000E0F013A6F000EFE
:10082800396F090E386F000E3B6F090E926E000E7D
:10083800946E070E936E000E956E000E8A6E000E73
:100848008B6ED00EF26EC00EF16E8A8C1A0E0101FC
:10085800386FF80EE82EFED7382FFCD700F00CECD6
:100868000FF052EC0FF0000E0001E86F190EE76F61
:10087800170E7F6F020E806FBDEC0CF01A0E01018F
:10088800386FF80EE82EFED7382FFCD700F0010E8F
:100898002AEC0FF0800E2AEC0FF0380E00017F6F63
:1008A800020E806FBDEC0CF04D0E00017F6F020E42
:1008B800806FBDEC0CF0DF0E1CEC0FF0500E000149
:1008C8007F6F020E806FBDEC0CF080928094839E47
:1008D8002A0E5E18D8A473EF04F075EF04F097EFB2
:1008E80004F0010E2AEC0FF0800E2AEC0FF0290E0E
:1008F80000017F6F020E806FBDEC0CF0000E00014E
:10090800E86F000EE76FC00E2AEC0FF0380E0001FA
:100918007F6F020E806FBDEC0CF0F00EF16ED80EFA
:10092800F06EEBEC0DF0000E0001786F000E776FA3
:10093800D0EC0BF077C0DAF078C0DBF0DAC077F0F3
:10094800DBC078F0010E00017A6FF40E796FE5ECE8
:100958000EF077C07DF078C07EF0040E0001806F45
:10096800000E7F6F0AEC0BF07DC0D6F07EC0D7F08A
:10097800200E01012A6F010E2B6F530E2C6F020EF1
:100988002D6FD6C02EF1D7C02FF147EC0DF0C00E59
:100998002AEC0FF0430E00017F6F020E806FBDEC52
:1009A8000CF0200E00017F6F010E806FBDEC0CF083
:1009B800DF0E1CEC0FF0430E1CEC0FF0FF0E0101D4
:1009C800386FFF0E396FE7C03AF1E8C03BF1385194
:1009D8003A2739513B233A510001D65DD751800A55
:1009E80001013C6F3B51800A3C59D8B0FEEF04F03E
:1009F80000EF05F004EF05F08082809427EF05F002
:100A0800010E0001E7250101386F000E0001E82101
:100A18000101396F0001D6510101385D3951800A51
:100A28003A6F0001D751800A01013A59D8B01FEF37
:100A380005F021EF05F025EF05F08092808427EF7F
:100A480005F0809280940D0E0101386FFB0EE82EA0
:100A5800FED7382FFCD700D0C3EC0DF06CEF04F0B4
:100A6800EEEF00F0B8C0D9FFB9C0DAFFDECFF6FF6D
:100A7800DDCFF7FF0800F550250AD8A446EF05F0AA
:100A880048EF05F0F5EF05F0B8C0D9FFB9C0DAFFB7
:100A9800DE2A000EDD22000E0001D16F000ED06F9D
:100AA800D0C0D4F0D1C0D5F0D269D369B8C0D9FFCD
:100AB800B9C0DAFFDECFF6FFDDCFF7FF0800F5504B
:100AC800640AD8B46AEF05F06CEF05F07EEF05F024
:100AD800B8C0D9FFB9C0DAFFDECFF6FFDDCFF7FF28
:100AE8000800F550690AD8A47CEF05F07EEF05F000
:100AF800BEEF05F0B8C0D9FFB9C0DAFFDE2A000E94
:100B0800DD22BAC0D9FFBBC0DAFFDFCFBCF0020ECE
:100B1800DE26DFCFBDF0000EDD22BCC0D9FFBDC090
:100B2800DAFFDECFBEF0DDCFBFF0000EBFBFFF0E95
:100B3800C06FC16FC26FC36FC46FC56FB6C092F08C
:100B4800B7C093F0BEC094F0BFC095F0C0C096F097
:100B5800C1C097F0C2C098F0C3C099F0C4C09AF061
:100B6800C5C09BF02CEC01F092C0B6F093C0B7F072
:100B780011EF06F0B8C0D9FFB9C0DAFFDECFF6FF33
:100B8800DDCFF7FF0800F550250AD8A4CEEF05F011
:100B9800D0EF05F0E8EF05F0B8C0D9FFB9C0DAFF2B
:100BA800DE2A000EDD22000E786F250E776FB6C0A4
:100BB80079F0B7C07AF0DAEC09F0000E0001B76FEF
:100BC800010EB66F11EF06F0B8C0D9FFB9C0DAFF51
:100BD800DE2A000EDD22000EB76F000EB66F11EF91
:100BE80006F0B8C0D9FFB9C0DAFFDECFF6FFDDCF17
:100BF800F7FF0800F5500001776F786BB6C079F001
:100C0800B7C07AF0DAEC09F0B8C0D9FFB9C0DAFF9A
:100C1800DE2A000EDD22E1EF05F0120042C0D9FF06
:100C280043C0DAFFDECFF6FFDDCFF7FF0800F5504F
:100C3800250AD8A422EF06F024EF06F0D0EF06F03C
:100C480042C0D9FF43C0DAFFDE2A000EDD22000EC3
:100C58000001D16F000ED06FD0C0D4F0D1C0D5F054
:100C6800D269D36942C0D9FF43C0DAFFDECFF6FFAD
:100C7800DDCFF7FF0800F550640AD8B446EF06F058
:100C880048EF06F05AEF06F042C0D9FF43C0DAFF3A
:100C9800DECFF6FFDDCFF7FF0800F550690AD8A4CC
:100CA80058EF06F05AEF06F09AEF06F042C0D9FF67
:100CB80043C0DAFFDE2A000EDD2244C0D9FF45C05A
:100CC800DAFFDFCF46F0020EDE26DFCF47F0000E58
:100CD800DD2246C0D9FF47C0DAFFDECF48F0DDCFBE
:100CE80049F0000E49BEFF0E4A6E4B6E4C6E4D6EBB
:100CF8004E6E4F6E40C01CF041C01DF048C01EF043
:100D080049C01FF04AC020F04BC021F04CC022F06F
:100D18004DC023F04EC024F04FC025F09EEC02F0E9
:100D28001CC040F01DC041F0EBEF06F042C0D9FFF7
:100D380043C0DAFFDECFF6FFDDCFF7FF0800F5503E
:100D4800250AD8A4AAEF06F0ACEF06F0C3EF06F028
:100D580042C0D9FF43C0DAFFDE2A000EDD22000EB2
:100D6800026E250E016E40C003F041C004F0A5ECF0
:100D78000AF0000E416E010E406EEBEF06F042C025
:100D8800D9FF43C0DAFFDE2A000EDD22000E416ED5
:100D9800000E406EEBEF06F042C0D9FF43C0DAFF09
:100DA800DECFF6FFDDCFF7FF0800F550016E026ACF
:100DB80040C003F041C004F0A5EC0AF042C0D9FFDE
:100DC80043C0DAFFDE2A000EDD22BDEF06F0120076
:100DD800000E0001886F86BFF6EF06F0F4EF06F00C
:100DE80008EF07F0861F851F841F831F821F811F3E
:100DF800801F7F6D000E8023812382238323842319
:100E080085238623010E886F7EBF0FEF07F00DEF55
:100E180007F021EF07F07E1F7D1F7C1F7B1F7A1FC5
:100E2800791F781F776D000E782379237A237B2327
:100E38007C237D237E23010E881B20EE89F0070E7C
:100E4800DE6AE806FDE27F5180118111821183116B
:100E5800841185118611D8B434EF07F036EF07F006
:100E680088EF07F0010E876F44EF07F0D8907F37BF
:100E78008037813782378337843785378637872BA2
:100E880086AF49EF07F04BEF07F03AEF07F0D8903D
:100E980089378A378B378C378D378E378F3790372E
:100EA8007F51775D805178598151795982517A59AA
:100EB80083517B5984517C5985517D5986517E597E
:100EC800D8A069EF07F06BEF07F07CEF07F07F51D0
:100ED800775F8051785B8151795B82517A5B83516E
:100EE8007B5B84517C5B85517D5B86517E5B898110
:100EF800D890863385338433833382338133803388
:100F08007F33872F4BEF07F08851D8B48EEF07F067
:100F180090EF07F0A0EF07F0901F8F1F8E1F8D1F17
:100F28008C1F8B1F8A1F896D000E8A238B238C23AD
:100F38008D238E238F23902389C077F08AC078F081
:100F48008BC079F08CC07AF08DC07BF08EC07CF0BD
:100F58008FC07DF090C07EF01200000E126E10BEA1
:100F6800BAEF07F0B8EF07F0CCEF07F0101E0F1E2E
:100F78000E1E0D1E0C1E0B1E0A1E096C000E0A22E8
:100F88000B220C220D220E220F221022010E126EAD
:100F980008BED3EF07F0D1EF07F0E5EF07F0081E22
:100FA800071E061E051E041E031E021E016C000EEF
:100FB8000222032204220522062207220822010E09
:100FC800121A20EE13F0070EDE6AE806FDE2095059
:100FD8000A100B100C100D100E100F101010D8B4B2
:100FE800F8EF07F0FAEF07F04CEF08F0010E116E7A
:100FF80008EF08F0D89009360A360B360C360D364D
:101008000E360F361036112A10AE0DEF08F00FEF1E
:1010180008F0FEEF07F0D89013361436153616365A
:101028001736183619361A360950015C0A50025814
:101038000B5003580C5004580D5005580E500658C4
:101048000F50075810500858D8A02DEF08F02FEF70
:1010580008F040EF08F00950015E0A50025A0B50A0
:10106800035A0C50045A0D50055A0E50065A0F5088
:10107800075A1050085A1380D89010320F320E3287
:101088000D320C320B320A320932112E0FEF08F0F2
:101098001250D8B452EF08F054EF08F064EF08F09B
:1010A8001A1E191E181E171E161E151E141E136C46
:1010B800000E1422152216221722182219221A228B
:1010C80013C001F014C002F015C003F016C004F0FC
:1010D80017C005F018C006F019C007F01AC008F0CC
:1010E8001200000E0001886F7EBF7FEF08F07DEFD1
:1010F80008F091EF08F07E1F7D1F7C1F7B1F7A1F71
:10110800791F781F776D000E782379237A237B2344
:101118007C237D237E23010E886F86BF98EF08F01D
:1011280096EF08F0A8EF08F0861F851F841F831F1D
:10113800821F811F801F7F6D000E802381238223E1
:1011480083238423852386237F5180118111821173
:101158008311841185118611D8B4B5EF08F0B7EF63
:1011680008F0FFEF08F0010E876FC5EF08F0D89080
:101178007F3780378137823783378437853786379B
:10118800872B86AFCAEF08F0CCEF08F0BBEF08F06A
:101198007F51775D805178598151795982517A59B7
:1011A80083517B5984517C5985517D5986517E598B
:1011B800D8A0E1EF08F0E3EF08F0F3EF08F07F5173
:1011C800775F8051785B8151795B82517A5B83517B
:1011D8007B5B84517C5B85517D5B86517E5BD890BF
:1011E80086338533843383338233813380337F334B
:1011F800872FCCEF08F08851D8B405EF09F007EF36
:1012080009F017EF09F07E1F7D1F7C1F7B1F7A1FD7
:10121800791F781F776D000E782379237A237B2333
:101228007C237D237E2377C077F078C078F079C05F
:1012380079F07AC07AF07BC07BF07CC07CF07DC00E
:101248007DF07EC07EF01200000E126E08BE31EFF7
:1012580009F02FEF09F043EF09F0081E071E061EDC
:10126800051E041E031E021E016C000E022203222C
:1012780004220522062207220822010E126E10BE41
:101288004AEF09F048EF09F05AEF09F0101E0F1E57
:101298000E1E0D1E0C1E0B1E0A1E096C000E0A22C5
:1012A8000B220C220D220E220F22102209500A10A6
:1012B8000B100C100D100E100F101010D8B467EF93
:1012C80009F069EF09F0B1EF09F0010E116E77EF3F
:1012D80009F0D89009360A360B360C360D360E361C
:1012E8000F361036112A10AE7CEF09F07EEF09F0A8
:1012F8006DEF09F00950015C0A5002580B50035871
:101308000C5004580D5005580E5006580F500758E9
:1013180010500858D8A093EF09F095EF09F0A5EF01
:1013280009F00950015E0A50025A0B50035A0C503A
:10133800045A0D50055A0E50065A0F50075A1050AD
:10134800085AD89010320F320E320D320C320B324E
:101358000A320932112E7EEF09F01250D8B4B7EFD5
:1013680009F0B9EF09F0C9EF09F0081E071E061EBB
:10137800051E041E031E021E016C000E022203221B
:101388000422052206220722082201C001F002C019
:1013980002F003C003F004C004F005C005F006C065
:1013A80006F007C007F008C008F0120000017951E4
:1013B8007A11D8B4E2EF09F0E4EF09F0EDEF09F0A3
:1013C80079517A11D8A4EBEF09F0EDEF09F0F2EFBB
:1013D80009F077515DEC0FF03FEF0AF020EE04F0D2
:1013E8007951D9267A51DA22DE50DE10D8B4FFEFCF
:1013F80009F001EF0AF01CEF0AF020EE04F0795131
:10140800D9267A51DA2210EE02F07951E1267A5182
:10141800E222DE50E65CE650800A7F6FDE50800AEA
:101428007F59D8B01AEF0AF01CEF0AF03FEF0AF024
:1014380020EE02F07951D9267A51DA22DECF7BF0FC
:10144800DDCF7CF079C0D9FF7AC0DAFFDECF7DF03E
:10145800DDCF7EF07B517D25D96E7C517E21DA6E01
:1014680077C0DFFF20EE02F07951D9267A51DA22CF
:10147800DE2A000EDD2212000001D4A146EF0AF098
:1014880048EF0AF052EF0AF089C080F08AC081F074
:1014980087C082F088C083F012EC0EF000018CBF88
:1014A80058EF0AF05AEF0AF060EF0AF08BC090F09C
:1014B8008CC091F064EF0AF0000E916F000E906FEF
:1014C800000E8F6F000E8E6F77EF0AF0000E786FA8
:1014D800200E776F87C079F088C07AF0DAEC09F0CF
:1014E80000018E4B8F2B90518E5D8F51800A8D6F2E
:1014F8009151800A8D59D8A084EF0AF086EF0AF03E
:101508006AEF0AF0D4B18BEF0AF08DEF0AF097EF8B
:101518000AF089C080F08AC081F087C082F088C054
:1015280083F012EC0EF089C077F08AC078F099EC5D
:101538000EF0000190517725876F91517821886FBF
:10154800120003500410D8B4ACEF0AF0AEEF0AF062
:10155800B7EF0AF003500410D8A4B5EF0AF0B7EFBC
:101568000AF0BCEF0AF001505EEC0FF009EF0BF047
:1015780020EE04F00350D9260450DA22DE50DE10A3
:10158800D8B4C9EF0AF0CBEF0AF0E6EF0AF020EE84
:1015980004F00350D9260450DA2210EE02F003506A
:1015A800E1260450E222DE50E65CE650800A096E2D
:1015B800DE50800A0958D8B0E4EF0AF0E6EF0AF0E6
:1015C80009EF0BF020EE02F00350D9260450DA227E
:1015D800DECF05F0DDCF06F003C0D9FF04C0DAFF87
:1015E800DECF07F0DDCF08F005500724D96E06508E
:1015F8000820DA6E01C0DFFF20EE02F00350D92682
:101608000450DA22DE2A000EDD221200000E00014C
:10161800826F80BF14EF0BF012EF0BF01AEF0BF094
:101628007F6D801FD8B0802B010E826F7EBF21EFA7
:101638000BF01FEF0BF027EF0BF07D6D7E1FD8B07E
:101648007E2B010E821B000E846F000E836F7F516C
:101658008011D8B432EF0BF034EF0BF05CEF0BF0E5
:10166800010E816F3CEF0BF0D8907F378037812BCC
:1016780080AF41EF0BF043EF0BF038EF0BF0D89051
:10168800833784377F517D5D80517E59D8A04FEFD5
:101698000BF051EF0BF056EF0BF07F517D5F80514F
:1016A8007E5B8381D89080337F33812F43EF0BF0AB
:1016B8008251D8B462EF0BF064EF0BF068EF0BF0D7
:1016C800836D841FD8B0842B83C07DF084C07EF0E6
:1016D80012000001D4A173EF0BF075EF0BF07FEF50
:1016E8000BF013C00AF014C00BF011C00CF012C0BC
:1016F8000DF036EC0EF016BE84EF0BF086EF0BF013
:101708008CEF0BF015C01AF016C01BF090EF0BF021
:10171800000E1B6E000E1A6E000E196E000E186E6B
:10172800A2EF0BF0000E026E200E016E11C003F046
:1017380012C004F0A5EC0AF0184A192A1A50185CCD
:101748001950800A176E1B50800A1758D8A0AFEF9F
:101758000BF0B1EF0BF096EF0BF00001D4B1B7EF3F
:101768000BF0B9EF0BF0C3EF0BF013C00AF014C085
:101778000BF011C00CF012C00DF036EC0EF013C0D7
:1017880001F014C002F0B6EC0EF01A500124116EEC
:101798001B500220126E120077C079F00001D89019
:1017A8007937D89079373C0E7917C250C30B791125
:1017B800C26EC2B2E2EF0BF0E6EF0BF0796B792B59
:1017C800E8EF0BF00001796B010E7A6F792BEFEFE0
:1017D8000BF0D8907A37792FEDEF0BF0C2B0F7EF16
:1017E8000BF0FCEF0BF000017B6B7B2BFEEF0BF09B
:1017F80000017B6B010E7C6F7B2B05EF0CF0D89002
:101808007C377B2F03EF0CF000017C517A11C21258
:10181800C2B211EF0CF013EF0CF00CEF0CF0C35048
:10182800C4CF79F000017A6B79C07AF0796B7911BD
:101838007D6F7A517E6F7DC077F07EC078F01200A0
:10184800016E01C002F08AA62CEF0CF02EEF0CF00E
:1018580038EF0CF0010E0224F66EF76A020EF7223A
:101868000800F5505AEF0CF0030E02268AA83FEF45
:101878000CF041EF0CF043EF0CF02EEF0CF0030EE0
:1018880002268AAA4AEF0CF04CEF0CF04EEF0CF04F
:101898002EEF0CF0030E02268AAC55EF0CF057EF32
:1018A8000CF059EF0CF02EEF0CF0000E1200C8C02F
:1018B800CCF0C9C0CDF0000E0001CF6F000ECE6F86
:1018C80079EF0CF0C6C0B6F0C7C0B7F0CC0EB86F51
:1018D800000EB96FCAC0BAF0CBC0BBF036EC05F049
:1018E8000001B651CE27B751CF23CCC0F6FFCDC0EB
:1018F800F7FF0800F5500009D8A485EF0CF087EF32
:101908000CF066EF0CF0CEC0C6F0CFC0C7F01200E6
:1019180052C056F053C057F0000E0001CF6F000EB2
:10192800CE6FAAEF0CF050C040F051C041F0560EF7
:10193800426E000E436E54C044F055C045F012ECA0
:1019480006F040500001CE274150CF2356C0F6FF85
:1019580057C0F7FF0800F5500009D8A4B6EF0CF0FF
:10196800B8EF0CF097EF0CF0CEC050F0CFC051F0AC
:101978001200D4EF0CF07FC0F6FF80C0F7FFF86AC2
:10198800010EF76403D00800F55005D0F6CFE1FF4B
:10199800F7CFE2FFE7501CEC0FF000017F4B802BE4
:1019A8007FC0F6FF80C0F7FFF86A010EF76403D026
:1019B8000800F55005D0F6CFE1FFF7CFE2FFE7507A
:1019C8000009D8A4EAEF0CF0ECEF0CF0BFEF0CF034
:1019D800120003EF0DF009C0F6FF0AC0F7FFF86A1E
:1019E800010EF76403D00800F55005D0F6CFE1FFEB
:1019F800F7CFE2FFE75038EC0FF0094A0A2A09C08E
:101A0800F6FF0AC0F7FFF86A010EF76403D0080072
:101A1800F55005D0F6CFE1FFF7CFE2FFE750000918
:101A2800D8A419EF0DF01BEF0DF0EFEF0CF012003A
:101A38000001796F000E00017D6F000E7C6F000EB3
:101A48007B6F000E7A6F2BEF0DF07A4B7B2B795161
:101A5800776F786B7A51775D7B517859D8B037EFCB
:101A68000DF039EF0DF029EF0DF07C4B7D2B7D51FA
:101A780009E1790E7C5DD8A044EF0DF046EF0DF03A
:101A880023EF0DF012002E0E0101306F010E316FA1
:101A98002AC132F12BC133F1000E356F000E346FBD
:101AA800000E376F000E366F320E0001C66F010E42
:101AB800C76F2CC1C8F02DC1C9F0300ECA6F010E16
:101AC800CB6F5BEC0CF0010134512A25D96E3551EE
:101AD8002B21DA6E000EDF6E12005C0E0001606FC3
:101AE800000E616F58C062F059C063F0000E656F58
:101AF800000E646F000E676F000E666F620E506E08
:101B0800000E516E5AC052F05BC053F0600E546E16
:101B1800000E556E8CEC0CF0000164515824D96EFF
:101B280065515920DA6E000EDF6E1200036E000E4A
:101B3800076E000E066E000E056E000E046EA7EF0F
:101B48000DF0044A052A0350016E026A0450015C34
:101B580005500258D8B0B3EF0DF0B5EF0DF0A5EF72
:101B68000DF0064A072A075009E1790E065CD8A04D
:101B7800C0EF0DF0C2EF0DF09FEF0DF01200000E58
:101B88000001786F030E776FD0EC0BF077C0D8F0B8
:101B980078C0D9F00001D9BFDBEF0DF0000ED85D99
:101BA800020ED959D8A0DBEF0DF0DDEF0DF0E0EF14
:101BB8000DF0838EE1EF0DF0839E030E00017F6F21
:101BC800970EE82EFED77F2FFCD700D01200080E04
:101BD8000001DC6F230E5E18D8A4F5EF0DF0F7EFC7
:101BE8000DF0F9EF0DF00DEF0EF00001DC51DC25E2
:101BF800DC6F7F0EDC6503EF0EF005EF0EF007EFEC
:101C08000EF0080EDC6FDCC08AFFC3EC0DF0EEEFBF
:101C18000DF0C00EF16E000EF06E1200000E000105
:101C2800866F000E856F25EF0EF084C077F0786B15
:101C380082C079F083C07AF0DAEC09F00001854BB4
:101C4800862B85518025D96E86518121DA6EDF5029
:101C5800846F8451D8A433EF0EF035EF0EF019EFEE
:101C68000EF01200000E106E000E0F6E47EF0EF011
:101C78000EC001F0026A0CC003F00DC004F0A5EC20
:101C88000AF00F4A102A0F500A24D96E10500B2060
:101C9800DA6EDF500E6E0E50D8A455EF0EF057EFE7
:101CA8000EF03CEF0EF0120000018ABF66EF0EF056
:101CB8008A5106E18905D8B064EF0EF066EF0EF0A0
:101CC80074EF0EF089C08BF08AC08CF08B1F8C1FCC
:101CD8008B4B8C2B8BC089F08CC08AF078EF0EF080
:101CE80089C089F08AC08AF0120014BE86EF0EF00F
:101CF800145006E11304D8B084EF0EF086EF0EF00E
:101D080094EF0EF013C015F014C016F0151E161E31
:101D1800154A162A15C013F016C014F098EF0EF0E5
:101D280013C013F014C014F0120077C079F078C013
:101D38007AF0A2EF0EF00001774B782B77C0D9FF2D
:101D480078C0DAFFDF50D8A4ACEF0EF0AEEF0EF09B
:101D58009FEF0EF000017951775D776F7A517859CE
:101D6800786F120001C003F002C004F0BEEF0EF05D
:101D7800014A022A01C0D9FF02C0DAFFDF50D8A405
:101D8800C8EF0EF0CAEF0EF0BCEF0EF00350015C86
:101D9800016E04500258026E120001EE00F02A0E85
:101DA800EE6AE806FDE100EECEF01B0EEE6AE806EC
:101DB800FDE15E6A5F905F92000EF86E000110EF21
:101DC80004F0000177517903F3CF7BF0F4CF7CF076
:101DD80077517A03F3507C2778517903F3507C27A5
:101DE8007BC077F07CC078F0120001500302F3CF7B
:101DF80005F0F4CF06F001500402F3500626025015
:101E08000302F350062605C001F006C002F01200D6
:101E1800380E2AEC0FF00E0E2AEC0FF0010E2AEC09
:101E28000FF0060E2AEC0FF0800E2AEC0FF01200CD
:101E380000017E6F7EC082FF83808382010E1CECCE
:101E48000DF08392030E1CEC0DF0120000017E6F62
:101E58007EC082FF83908382010E1CEC0DF083927A
:101E6800010E1CEC0DF01200086E08C082FF838082
:101E78008382010E9AEC0DF08392030E9AEC0DF01A
:101E88001200086E08C082FF83908382010E9AECCC
:101E98000DF08392010E9AEC0DF01200000EC16E47
:101EA800880EC06E000EC36E000EC46E010EC26EA8
:061EB800120012001200EE
:020000040020DA
:08000000FFFFFFFFFFFFFFFF00
:020000040030CA
:0E000000FF291F3CFFBF85FF03C003E0034044
:00000001FF
